:020000040800F2
:10000000B81B0020C9010008CB26000855220008B3
:10001000C9260008270300088344000800000000E8
:10002000000000000000000000000000752A000829
:100030006D03000800000000732A0008772A0008FA
:10004000E3010008E3010008E3010008E301000800
:10005000E3010008E3010008E3010008E3010008F0
:10006000E3010008E3010008E3010008E3010008E0
:10007000E3010008E3010008E3010008E3010008D0
:10008000E3010008E3010008E3010008E3010008C0
:10009000FD430008E3010008E3010008E301000854
:1000A000E3010008E3010008E3010008E3010008A0
:1000B000E3010008E3010008E3010008E301000890
:1000C000E3010008E3010008E3010008E301000880
:1000D000E3010008E3010008E3010008E301000870
:1000E000E3010008E3010008E301000800F002F862
:1000F00000F05AF80AA090E8000C82448344AAF168
:100100000107DA4501D100F04FF8AFF2090EBAE865
:100110000F0013F0010F18BFFB1A43F0010318473B
:10012000E0430000004400000A444FF0000C10F8C7
:10013000013B13F0070408BF10F8014B1D1108BF65
:1001400010F8015B641E05D010F8016B641E01F805
:10015000016BF9D113F0080F1EBF10F8014BAD1C55
:100160000C1B09D16D1E58BF01F801CBFAD505E073
:1001700014F8016B01F8016B6D1EF9D59142D6D3CD
:10018000704700000023002400250026103A28BFF5
:1001900078C1FBD8520728BF30C148BF0B607047F9
:1001A0001FB51FBD10B510BD00F058F81146FFF780
:1001B000F7FF04F077F900F076F803B4FFF7F2FFE9
:1001C00003BC00F07DF8000009488047094800475B
:1001D000FEE7FEE7FEE7FEE7FEE7FEE7FEE7FEE7F7
:1001E000FEE7FEE704480549054A064B7047000054
:1001F000F72A0008ED000008B8150020B81B002001
:10020000B8170020B81700204FF0000200B51346C1
:1002100094469646203922BFA0E80C50A0E80C5026
:10022000B1F12001BFF4F7AF090728BFA0E80C50D7
:1002300048BF0CC05DF804EB890028BF40F8042BD0
:1002400008BF704748BF20F8022B11F0804F18BF3D
:1002500000F8012B7047704770477047754600F0F3
:100260002BF8AE4605006946534620F00700854648
:1002700018B020B5FFF7B6FFBDE820404FF00006EC
:100280004FF000074FF000084FF0000B21F007017E
:10029000AC46ACE8C009ACE8C009ACE8C009ACE8C1
:1002A000C0098D46704710B50446AFF30080204664
:1002B000BDE81040FFF781BF004870475815002087
:1002C00001491820ABBEFEE726000200704700007F
:1002D00070B5044600688168C943C90717D18168B1
:1002E00021F00101816000F055FC05460AE000BFE5
:1002F00000F050FC401B022804D920688068C043ED
:10030000C00706D020688068C043C007F0D0002036
:1003100070BDA06A40F01000A062E06A40F00100E9
:10032000E062012070BDFEE70020704700207047AA
:1003300010B500220449054802F040FE0449034874
:1003400002F036FE002010BD600C00209C0300204F
:100350006008002010B50146034802F029FE02485B
:1003600002F00AFE002010BD9C030020704772B608
:10037000FEE70000F8B50024009490F824202546FC
:10038000012A12D0012280F824204A681F23072A5C
:100390000DD20668776B521E02EB820293409F4398
:1003A0000B6893401F43776319E00220F8BD06688D
:1003B0000D2A0AD2376BD21F02EB820293409F4371
:1003C0000B6893401F43376309E0F76A0D3A02EB6D
:1003D000820293409F430B6893401F43F7620A6871
:1003E000072306680A2A0AD3F7680A3A02EB420290
:1003F00093409F438B6893401F43F76008E0376941
:1004000002EB420293409F438B6893401F43376146
:100410000A68102A01D0112A20D1124B02689A4290
:1004200017D193681B0219D4936843F400039360B7
:100430000968102912D10C490C4A0968B1FBF2F184
:1004400001EB8101490000E0491E00910029FBD128
:1004500004E0816A41F020018162012480F8245087
:100460002046F8BD002401406C00002040420F00EF
:100470002DE9F0414FF0000704003D467ED0A06A10
:10048000002628B9E66284F82460204600F07EF851
:100490002046FFF71DFFA16AC90600D420B1A06A5B
:1004A00040F01000A06269E0A16A21F4885141F097
:1004B0000201A1626268E169237B0A4347EA4301C2
:1004C0000A43A1684FF48077B94209D0012907D0C7
:1004D0005FF0000194F814C0BCF1010F02D00AE0F3
:1004E0003946F7E7F3B1A36A43F02003A362E36A56
:1004F00043F00103E3622368D3F804C02CF4694C91
:100500004CEA010CC3F804C021688B68DFF870C0A6
:1005100003EA0C0313438B60A168B9420BD0012995
:1005200009D00CE0DFF85CC0A3690CEB43330B434C
:1005300043F40061DFE7218A0D05A5F580152168E8
:10054000CB6A23F470032B43CB62216889680E4B7E
:100550001940914208D1E662A16A21F0020141F0FE
:100560000101A162BDE8F081A06A20F0020040F024
:100570001000A062E06A40F00100E0620120F1E7B3
:10058000FDF7E1FF00E0FFFFFE0E1FFF00B585B0A5
:100590000021009101910291039100680E49884267
:1005A00018D10E48816941F400718161816901F4BB
:1005B00000710491816941F004018161806969469B
:1005C00000F00400049010200090032001900448E3
:1005D00000F0EAF905B000BD00240140001002401F
:1005E0000008014070472DE9F05F054600680024CF
:1005F0004669D0F804908768D0F80CB0D0F810A005
:10060000D0F81880F10748D0F90714D00121816093
:10061000B80703D5284600F0C1F90CE0780702D5E9
:100620004FF4006407E0380702D54FF4805402E02D
:10063000284600F0B2F9F80516D529684FF4807005
:100640008860B80503D5284600F0AAF90CE07805C3
:1006500002D544F4005407E0380502D544F4804440
:1006600002E0284600F09BF9F80316D529684FF4FC
:1006700080308860B80303D5284600F093F90CE079
:10068000780302D544F4004407E0380302D544F46B
:10069000803402E0284600F084F9300707D55FEA8D
:1006A000CB6004D52968102044F40074C86070073A
:1006B0004FF0080707D55FEA0B7004D52868C760BC
:1006C000284600F065F9B00706D52868C06880079D
:1006D00002D0284600F05DF9700607D55FEACA60CF
:1006E00004D52968102044F480640861B00607D559
:1006F0005FEA0A7004D528680761284600F04AF9C5
:10070000F00606D528680069800702D0284600F068
:1007100042F9B00308D55FEAC96005D52968102001
:100720004860284600F038F9F00307D55FEA097001
:1007300004D528684760284600F035F9300446D5CE
:100740005FEA497040D5F00504D55FEAC87001D072
:1007500044F00104B00504D55FEA887001D544F087
:100760000204700504D55FEA487001D544F0040422
:10077000300529D518F0700F26D008F070004028F9
:1007800015D006DC102809D020280AD0302816D130
:100790000AE050280ED0602811D10EE044F0080481
:1007A0000DE044F010040AE044F0200407E044F0B7
:1007B000400404E044F0800401E044F480742868BC
:1007C000816921F070018161296804204860002C52
:1007D00005D0686A204368622846FFF703FFBDE83A
:1007E000F09F70B5040003D094F8200010B104E02D
:1007F000012070BD204600F081F82068016841F0BA
:100800000101016000F0C6F90546052604E000F08C
:10081000C1F9401B0A2811D820684068C007F6D0EB
:100820002068016821F00201016000F0B3F905467B
:100830000BE000F0AFF9401B0A2806D9606A40F4CB
:100840000030606284F82060D2E72068406880074A
:10085000EFD4207E0128206801683DD021F080017E
:100860000160607E01282068016838D021F04001D5
:100870000160A07E01282068016833D021F02001AA
:100880000160E07E0128206801682ED041F010014F
:100890000160207F01282068016829D021F008012B
:1008A0000160607F01282068016824D021F00401E4
:1008B0000160D4E902010843D4E90412114308435A
:1008C0006168491E08432168C861002060620120F8
:1008D00084F82000002070BD41F08001C0E741F0A5
:1008E0004001C5E741F02001CAE721F01001CFE740
:1008F00041F00801D4E741F00401D9E710B586B012
:100900000021009101910291039100681C498842E5
:1009100033D11C48C16941F00071C161C16901F066
:1009200000710491816941F0080181618069164C70
:1009300000F0080004904FF4807000906946204653
:1009400000F032F86015009002200190032003901F
:100950006946204600F028F80C48416821F4C0415F
:1009600041F0E06141F480414160002211461420D1
:1009700000F07CF9142000F06BF906B010BD000007
:100980000064004000100240000C014000000140E3
:10099000704770477047704770477047704770479F
:1009A00070477047704770472DE9F84FDFF8B891EE
:1009B0000024A9F1040B23460F2709F1040AABF127
:1009C000040EC9E00125A5402A40AA427DD1674E08
:1009D000D1F804C0ACEB0608B44532D014DCBCF14D
:1009E000030F3AD009DCBCF1000F2AD0BCF1010F93
:1009F0001CD0BCF1020F31D11DE0BCF1110F17D09A
:100A0000BCF1120F2AD119E0B8F5881F19D006DC05
:100A1000B8F5803F15D0B8F5801F1FD111E0B8F5AB
:100A2000001F0ED0B8F5041F18D10AE0CB6815E0FE
:100A3000CB681B1D12E0CB6808330FE0CB680C338A
:100A40000CE08B682BB1012B4FF0080303D04561FC
:100A500004E0042302E0056100E00023FF2A01D83E
:100A6000064601E000F104064FEA840501D9A5F12C
:100A70002005D6F8008007FA05FC28EA0C0803FADE
:100A800005F548EA0508C6F800804D68ED0062D516
:100A9000374DAE6946F00106AE61AD6924F003063C
:100AA00005F001050095334D06EB050CDCF8085008
:100AB000A607360F07FA06F825EA0805DFF8B8801A
:100AC000404503D14FF0000817E044E0DFF8AC8068
:100AD000404502D14FF001080FE0DFF8A480404507
:100AE00002D14FF0020808E0DFF89880404502D1BB
:100AF0004FF0030801E04FF0040808FA06F848EA4E
:100B00000508CCF808804D68D9F80060ED024D4624
:100B100001D5164300E096432E604D68DAF8006078
:100B2000AD02554601D5164300E096432E604D6850
:100B3000DBF80060AD035D4601D5164300E0964347
:100B40002E604D68DEF80060ED03754601D5164352
:100B500000E096432E60641C0D682A46E5407FF451
:100B600031AFBDE8F88F000008040140000011100B
:100B7000001002400000014000080140000C01404C
:100B800000100140001401400AB1016170470904DE
:100B9000FBE700000148806870470000600000200B
:100BA000024881680278114481607047600000202B
:100BB000074810B5016841F010010160032000F002
:100BC00075F80F2000F006F800F024F8002010BDA2
:100BD0000020024070B50D4D04464FF47A7128781C
:100BE000B1FBF0F00A490968B1FBF0F001F088F8B8
:100BF00048B9102C07D200222146501E00F036F8CA
:100C000000206C6070BD012070BD000060000020FD
:100C10006C0000200C4808B5816941F00101816138
:100C2000816901F001010091C16941F08051C16108
:100C3000C06900F0805000900448416821F0E061F4
:100C400041F00071416008BD001002400000014009
:100C5000002809DB00F01F020121914040098000BB
:100C600000F1E020C0F8001170470000F0B40E4B16
:100C70001B680C46C3F30223C3F10705042D00D9FA
:100C80000425191D072901D2002300E0DB1E0126DF
:100C900006FA05F1491E214099409E40761E1640F5
:100CA0003143F0BC03F0EEBB0CED00E0064900F070
:100CB000070208684FF6FF03184040EA0220034A83
:100CC00010430860704700000CED00E00000FA05DA
:100CD00010B50C0607D501F0070101EB810100EB0F
:100CE000C100103005E001EB810100EBC10000F50F
:100CF000A87099B232B1012202730181190C4181AD
:100D0000002010BD00220273C180F9E7704701EB9B
:100D1000810200EBC202D0F8D402526A02F03FBB5B
:100D200001EB810200EBC202D0F8D402D2F86421B8
:100D300002F098BB70B504460B0601F0070000EB0B
:100D4000800104EBC1014FF001024FF0000502D514
:100D50004A74103103E081F8515101F5A87108700F
:100D600094F89002012808D084F89022206802F0BC
:100D7000D9FF84F89052002070BD022070BD70B57C
:100D8000044601F00F002279904201D9012070BD84
:100D90000B0601F0070000EB800104EBC1014FF0EE
:100DA00001024FF0000502D54A74103103E081F8CA
:100DB000515101F5A8718D70087094F890020128C6
:100DC00008D084F89022206803F049F884F8905203
:100DD000002070BD022070BD2DE9F05F04685FEA5D
:100DE000424C0B788D69B4F850C04FF000064BF6BA
:100DF0008F7948F2800A48F68F7B48F2C00E4FF494
:100E000080672AD54FF0020808EBC308C44407EBFB
:100E10004C07E45BC4F30904A54203D32D1B8D6189
:100E200001D00BE08E61066836F8235005EA09050B
:100E300085F4005545EA0A0526F82350520609D5DF
:100E40000D78036833F8252002EA0B0242EA0E020D
:100E500023F8252084B30A8929E04FF0060808EB1F
:100E6000C308C44407EB4C07E45BC4F30904A54280
:100E700003D32D1B8D6101D00BE08E61066836F81F
:100E8000235005EA090585F4005545EA0A0526F8C8
:100E90002350520609D40B78056835F8232002EA5E
:100EA0000B0242EA0E0225F823202CB14A89496937
:100EB0000068234603F0B4FA2046BDE8F09F2DE910
:100EC000F05F054600680C465FEA426C16468B6987
:100ED0002278B0F850C048F68F774CF280094FF472
:100EE000004B4FF6FF7E4FF4806A4FF0000172D541
:100EF0004FF0020808EBC208E0440AEB480C30F857
:100F00000C00C0F30900834211D91B1AA3610FD052
:100F1000730407D52E6836F822303B4043EA0903B4
:100F200026F8223094F82420012A47D052E1A1610A
:100F3000607810B1012813D01AE02868B0F850305A
:100F4000184400EB0210B0F80424C2F30902A0F820
:100F50000424B0F8042442F40042A0F8042407E07A
:100F60002868B0F85030184400EB0210A0F80414C0
:100F70006278286812B1012A11D018E0B0F8501038
:100F80000844217800EB0110B0F80C14C1F30901FA
:100F9000A0F80C14B0F80C1441F4004105E0B0F8CE
:100FA00050201044227800EB0210A0F80C14217895
:100FB0002846FFF7ACFE700472D40BE1626902446C
:100FC0006261E2690244E2612369226A9A4203D3C0
:100FD0001846111A04E03EE084F824100AB11046C5
:100FE0002162617811B1012929D031E02968B1F875
:100FF00050201144227801EB0211B1F80424C2F30D
:101000000902A1F8042401F204413E2807D942094B
:10101000C30600D1521E0B884BEA822207E048B17A
:101020004208C30700D0521C0B880EEA82221343E9
:101030000B800DE00A8842F400420A8008E029682B
:10104000B1F850201144227801EB0211A1F80404F8
:1010500083B22289BAE04FF0060808EBC208E044E8
:101060000AEB480C30F80C00C0F30900834211D39E
:101070001B1AA3610FD0730407D42E6836F82230F0
:101080003B4043EA090326F8223094F82420012A41
:1010900051D09FE0A161607818B1012814D01BE005
:1010A0003FE02868B0F85030184400EB0210B0F868
:1010B0000424C2F30902A0F80424B0F8042442F482
:1010C0000042A0F8042407E02868B0F85030184423
:1010D00000EB0210A0F804146278286812B1012A0B
:1010E00011D018E0B0F850100844217800EB01103E
:1010F000B0F80C14C1F30901A0F80C14B0F80C14EA
:1011000041F4004105E0B0F850201044227800EB93
:101110000210A0F80C1421782846FFF7F8FD70049F
:1011200058D42278296831F82200384040EA090072
:1011300021F822004EE0626902446261E2690244E1
:10114000E2612369226A9A4203D31846111A216286
:1011500004E00AB11046216284F8241062782968FC
:1011600012B1012A28D02FE0B1F850201144227882
:1011700001EB0211B1F80C24C2F30902A1F80C240E
:1011800001F20C413E2807D94209C30600D1521E84
:101190000B884BEA822207E048B14208C30700D01F
:1011A000521C0B880EEA822213430B800CE00A8843
:1011B00042F400420A8007E0B1F85020114422783E
:1011C00001EB0211A1F80C04628983B261692868FD
:1011D00003F044F92278296831F8220048F6BF73F9
:1011E000184080F0300048F28003184321F82200B4
:1011F0000020BDE8F09F01F0070101EB810100EB49
:10120000C100D0F86C0170472DE9F04104460F068B
:1012100001F0070000EB800104EBC1014FF0010673
:101220004FF0000502D54E74103103E081F85151A2
:1012300001F5A871022B08700A61CB7000D10D7105
:1012400094F89002012809D084F89062206802F096
:1012500019FC284684F89052BDE8F0810220FBE793
:1012600010B501F0070404EB840100EBC101C1E9F2
:1012700059230022C1F86C2181F8512181F8504195
:10128000006801F5A87102F03FFE002010BD70B5A6
:1012900004460D4601F007002179884201D901205A
:1012A00070BD29064FF000064FF0010206D500EB95
:1012B000800104EBC1014A74103107E005EB8501A0
:1012C00004EBC10181F8516101F5A8718A700870C1
:1012D00094F89002012807D084F89022206802F048
:1012E000FAFD680702D006E0022070BD04F5267101
:1012F000206802F0B2FD84F89062002070BD10B545
:1013000001F0070404EB840100EBC101C1E90923EA
:10131000012281F834200B630023CB624A7401F868
:10132000104F006802F0F0FD002010BD1FB504460C
:10133000006803F071F8010403D5204601F0C6F9F6
:101340001FBD41050DD5206830F8441F21F4806190
:101350000180204600F000F90021204600F017F936
:101360001FBD410405D5206830F8441F21F4804199
:1013700074E0810405D5206830F8441F21F4005141
:101380006CE0C10414D5206830F8401F21F004013E
:101390000180206830F8401F21F0080101802046BC
:1013A00000F0EDF8206830F8441F21F4805155E03A
:1013B000010540D5D4F800200020694632F82030DD
:1013C00021F81030401CC0B20828F7D332F8400F83
:1013D00040F001001080206830F8402F22F0010218
:1013E00002802068B0F844205205FBD530F8442F25
:1013F00022F4806202800020236831F8102023F854
:101400002020401CC0B20828F6D3206830F8401FC6
:1014100041F008010180206830F8441F21F4006188
:101420000180206830F8401F41F00401018020460F
:1014300000F0E0F81FBD810509D5206830F8441F91
:1014400021F400710180204600F09DF81FBDC00509
:10145000FCD5206830F8441F21F4807101801FBD45
:101460002DE9F041040004D094F89102002518B150
:1014700007E00120BDE8F08184F89052204600F09A
:101480004DF8032084F891026571206802F0DEFCBB
:1014900094E80F0002F044FC022698BB002120686B
:1014A00002F0D4FF70BB002001270BE000EB8001AD
:1014B00004EBC1014F740874CD740D624D62401C81
:1014C000C0B28D6221798142F0D8002012E000BFC5
:1014D00000EB800104EBC10181F8515181F850010A
:1014E00081F85351C1F86051C1F86451401CC0B239
:1014F000C1F8685121798142EAD894E80F0002F0DE
:101500009CFC10B184F89162B3E7657384F8917222
:10151000206802F090FC0020ACE7000008B50068ED
:101520000B49884212D10B48C16941F40001C161E5
:10153000C069002200F40000009011461420FFF75B
:1015400095FBBDE808401420FFF782BB08BD0000F2
:10155000005C00400010024070B50446807901250F
:10156000022801D0FEF703FF2946D4F8D40202F086
:1015700061F8D4F8D402BDE8704002F01DB8D0F88C
:10158000D40202F041B8D0F8D40202F047B810B546
:10159000044690F8900201280AD0012084F89002B5
:1015A0006173206802F054FF002084F8900210BD9F
:1015B000022010BDD0F8D42200F52671104602F0AA
:1015C00045B810B5044690F89002012810D00120CB
:1015D00084F89002206802F008FF01212046FFF7FE
:1015E00095FB206802F025FC002084F8900210BDD5
:1015F000022010BD10B50446D0F8D40202F065F800
:10160000A07A002804D00348016841F00601016077
:1016100010BD000010ED00E02DE9F843054600780C
:10162000354CC00754D0E0690026C00008D4E069FA
:1016300040F08050E061E069012600F080500090A9
:101640002E480168C90512D40168804641F48071B2
:101650000160FFF79FFA074605E000BFFFF79AFA1F
:10166000C01B642823D8D8F80000C005F6D5206A2E
:1016700010F4407021D0A98801F4407181421CD03F
:10168000206A1F49012220F440700A6000220A608B
:101690002062C00711D0FFF77DFA074641F2883873
:1016A00008E000BFFFF776FAC11B414502D90320CD
:1016B000BDE8F883206A8007F4D5206A696820F4C1
:1016C0004070084320621EB1E06920F08050E06164
:1016D0002878800705D56068A96820F44040084351
:1016E00060602878C00605D56068E96820F480004D
:1016F000084360600020DBE70010024000700040FB
:10170000400442422DE9F0470F46050061D0434EA8
:10171000306800F00700B84209D2306820F00700B6
:1017200038433060306800F00700B84251D1286873
:101730003B4C810712D5400703D5606840F4E06058
:1017400060602878000703D5606840F460506060EE
:101750006068A96820F0F000084360602878C0073E
:1017600028D06868012810D02168022810D0890785
:1017700000292EDA616821F0030101436160FFF75F
:1017800009FA804641F288390DE021688903EFE7C4
:101790008901EDE7FFF7FEF9A0EB0801494502D901
:1017A0000320BDE8F0876068696800F00C00B0EBCA
:1017B000810FEFD1306800F00700B8420BD93068D4
:1017C00020F0070038433060306800F00700B8426E
:1017D00001D00120E5E72878400705D56068E96871
:1017E00020F4E060084360602878000706D5606850
:1017F000296920F4605040EAC100606000F038F8C8
:101800006168084AC1F30311515CC8400649086089
:1018100006480068FFF7DEF90020C2E7002002401A
:1018200000100240E84400086C0000206400002022
:101830000448054900684968044AC1F30221515C23
:10184000C84070476C00002000100240F8440008B7
:101850000448054900684968044AC1F3C221515C43
:10186000C84070476C00002000100240F844000897
:101870000E4A51680E4801F00C03042B11D0082BBE
:101880000FD10C48C1F38343C903C05C0AD551682A
:10189000084AC1F34041921E515C054A5043B0FBD7
:1018A000F1F07047044948437047000000100240BF
:1018B00000127A00D844000800093D002DE9F84FD5
:1018C000040070D02078C04DC00749D06868C0F3CC
:1018D0008100012807D06868C0F38100022809D17F
:1018E0006868C00306D52868800339D56068002879
:1018F000E7D035E06068B0F5803F0BD010B1B0F5AF
:10190000A02F11D0286820F480302860286820F4A7
:10191000802002E0286840F480302860606890B140
:10192000FFF738F906460AE0286840F4802028606E
:10193000F0E700BFFFF72EF9801B642873D82868F2
:101940008003F7D50CE0FFF725F9064605E000BF58
:10195000FFF720F9801B6428F0D828688003F7D4AB
:1019600020789A4E80074FF001094FF0000839D5D2
:10197000686810F00C0F07D06868C0F38100022877
:1019800009D16868C00306D42868800714D5206987
:10199000012808D110E02069B0B1C6F80090FFF727
:1019A000F9F8074605E00AE1FFF7F4F8C01B022842
:1019B000C4D828688007F7D52868616920F0F80046
:1019C00040EAC10028600DE0C6F80080FFF7E2F8A9
:1019D000074604E0FFF7DEF8C01B022823D828687A
:1019E0008007F7D4207800072CD57948A169D9B1B0
:1019F000C0F80090FFF7CEF8074604E0FFF7CAF8FA
:101A0000C01B02280FD8686A8007F7D571484FF4C9
:101A1000FA510068B0FBF1F0009000BF0098411E41
:101A20000091FAD20EE080E0C0F80080FFF7B2F833
:101A3000074604E0FFF7AEF8C01B022875D8686AB5
:101A40008007F7D42078400760D5E8690027C000F8
:101A500008D4E86940F08050E861E869012700F0A7
:101A6000805000905C480168C90513D40168834622
:101A700041F480710160FFF78DF8824606E000BFF7
:101A8000FFF788F8A0EB0A0064284ED8DBF80000C6
:101A9000C005F5D5E06801280AD008B1052813D0A3
:101AA000286A20F001002862286A20F0040002E081
:101AB000286A40F001002862E06841F2883B98B152
:101AC000FFF768F882460BE0286A40F004002862BD
:101AD000EEE700BFFFF75EF8A0EB0A0159455AD8C0
:101AE000286A8007F6D50CE0FFF754F8824605E037
:101AF000FFF750F8A0EB0A0159454CD8286A800737
:101B0000F6D41FB1E86920F08050E861E06988B33D
:101B10006968C1F38101022944D00228C6F86080B7
:101B200004D0FFF737F8044638E034E0FFF732F826
:101B3000074604E0FFF72EF8C01B02282BD82868C0
:101B40008001F7D4206AB0F5803F05D16868A168AC
:101B500020F4003008436860D4E90801084369684C
:101B600021F4741108436860C6F86090FFF712F81A
:101B7000044606E025E000BFFFF70CF8001B022832
:101B800009D828688001F7D51BE000BFFFF702F8ED
:101B9000001B022802D90320BDE8F88F28688001C5
:101BA000F4D40EE00128F7D06868226A00F480318E
:101BB000914204D1616A00F47010884201D0012082
:101BC000EAE70020E8E7000000100240000042427F
:101BD000800442426C0000200070004070B5040098
:101BE00009D0606A002540B125616561A56294F85D
:101BF000510040B10CE0012070BD6068B0F5827FFB
:101C0000F4D0E561F2E784F85050204600F040F847
:101C1000022084F851002068016821F04001016031
:101C2000A088218900F4827001F404410843A1894D
:101C300001F400610843217C01F002010843217D89
:101C400001F001010843218B01F400710843217F59
:101C500001F03801084394F8201001F08001084396
:101C6000218D01F40051084321680860A069042116
:101C700001EA1040216848602068C16921F40061D0
:101C8000C1616565012084F85100002070BD00002D
:101C900030B585B000240094019402940394006848
:101CA0001449884223D11448816941F480518161EB
:101CB000816901F480510491816941F004018161DD
:101CC00080690E4D00F004000490A02000900220D6
:101CD00001900320039069462846FEF765FE4020E8
:101CE000CDE90004694628460294FEF75DFE05B082
:101CF00030BD0000003001400010024000080140EB
:101D000010B5401EB0F1807F01D3012010BD4FF00F
:101D1000E02460610F21601702F0B4FB0020A06195
:101D200007202061002010BD10B590F83C20012A4A
:101D300022D0012280F83C20CA688C6822F44072CC
:101D400022434C6822F4806222430C6822F4006231
:101D500022430C6922F4805222434C6922F400523F
:101D60002243C969002322F480420A4301684A647D
:101D700080F83C30002010BD022010BD70B590F8F6
:101D80003C20012A26D0012480F83C40022280F821
:101D90003D2003685A689D6822F070060A68324345
:101DA0005A600D4B02689A4208D0B2F1804F05D0BC
:101DB0000A4B9A4202D00A4B9A4204D1496825F054
:101DC00080031943916080F83D40002180F83C1069
:101DD000084670BD022070BD002C01400004004088
:101DE0000008004010B5040003D094F83D0010B185
:101DF00007E0012010BD002084F83C00204600F0E0
:101E00001FF8022084F83D00211D206800F074FEB8
:101E1000012084F8460084F83E0084F83F0084F8EE
:101E2000400084F8410084F8420084F8430084F8BC
:101E3000440084F8450084F83D00002010BD0000F7
:101E400008B500680649884208D10648C16941F0D2
:101E50000401C161C06900F00400009008BD0000E9
:101E6000000800400010024070B5044690F83C00A5
:101E70000025012817D0012684F83C60022084F850
:101E80003D002068826822F0770222F47F4282605F
:101E90000868502838D00DDC20284FD005DC90B3DE
:101EA000102811D14AE0022070BD302846D04028C9
:101EB0000AD13BE060282FD070280DD0B0F5805FAC
:101EC00003D0B0F5005F12D0012584F83D600020FA
:101ED00084F83C00284670BDCB68D1E90121206818
:101EE00000F046FE2068816841F0770109E0CB6888
:101EF000D1E90121206800F03BFE2068816841F4AF
:101F000080418160E1E719E0CA684968206800F013
:101F1000E3FE5021206806E0CA684968206800F0A6
:101F2000ECFE6021206800F02DFECEE7CA6849680B
:101F3000206800F0D1FE40212068F4E722680146C5
:101F40001046F0E710B586B0002100910191029192
:101F50000391214C0368214A02212148A3420AD15E
:101F6000936943F004039361926902F004020492BE
:101F70004FF4407229E0B3F1804F1DD019488342DD
:101F800018D1906940F0080090619069039100F0C9
:101F9000080004903320CDE9000169461248FEF79D
:101FA00003FD1248416821F4406141F0E06141F4D1
:101FB0000061416006B010BD936943F00403936172
:101FC000926902F0040204920F22CDE900210391EC
:101FD0006946FEF7E9FCEDE7002C014000100240E5
:101FE0000008014000040040000C014000000140D6
:101FF00070B5044690F83C0000260D4601280FD02D
:10200000012084F83C006AB1042A1DD0082A2FD090
:102010000C2A3FD00126002084F83C00304670BDD9
:10202000022070BD206800F0B5FD2068816941F094
:10203000080181612068816921F0040181612068C3
:1020400081692A69114311E0206800F0CBFD206806
:10205000816941F4006181612068816921F48061B6
:102060008161206881692A6941EA02218161D2E7A0
:10207000206800F0E3FD2068C16941F00801C161FA
:102080002068C16921F00401C1612068C1692A6921
:10209000114311E0206800F0FDFD2068C16941F4A2
:1020A0000061C1612068C16921F48061C16120685B
:1020B000C1692A6941EA0221C161ACE710B5040097
:1020C00003D094F83D0010B107E0012010BD0020BE
:1020D00084F83C00204600F01FF8022084F83D0000
:1020E000211D206800F008FD012084F8460084F8D6
:1020F0003E0084F83F0084F8400084F8410084F8F2
:10210000420084F8430084F8440084F8450084F8D1
:102110003D00002010BD000008B5124A01681248B9
:10212000914207D1816941F400618161806900F4C5
:10213000006014E0B1F1804F0AD00C4A91420FD1F7
:10214000C16941F00201C161C06900F0020006E00E
:10215000C16941F00101C161C06900F00100009056
:1021600008BD0000002C01400010024000040040A7
:1021700070B5040004D094F84100002510B106E0C9
:10218000012070BD84F84050204600F023F8242040
:1021900084F841002068C16821F40051C1602046E4
:1021A00000F0BEFD2068016921F4904101612068C2
:1021B000416921F02A0141612068C16841F4005160
:1021C000C1606564202084F8410084F842006563A2
:1021D000002070BD30B585B00024009401940294B5
:1021E00003940068174988422AD11748816941F44D
:1021F00080418161816901F480410491816941F0EC
:10220000080181618069114D00F0080004904020B0
:102210000090022001900320039069462846FEF7B3
:10222000C3FB8020CDE90004694628460294FEF7EE
:10223000BBFB0748416841F0E06141F004014160A7
:1022400005B030BD0038014000100240000C0140D4
:1022500000000140FEE70000F0B500230A2430250D
:1022600037261F4611E000BFB4EB107F02D905EB03
:10227000107C01E006EB107C01F813C001EB430C6D
:1022800000015B1C8CF80170DBB29342ECD3F0BD13
:102290003EB5002411480094019402940E498460D4
:1022A000016004730475012505614FF460214460E9
:1022B000C161FEF7DDF808B1FEF759F81020CDE94D
:1022C0000005694602940548FEF754F8002801D03D
:1022D000FEF74DF83EBD00000024014084010020BF
:1022E0000D4810B50B49016010214160002181604B
:1022F000C16001614161017641768176C1760177E5
:102300004177FEF76EFA002803D0BDE81040FEF7D3
:102310002EB810BD00640040B401002070B586B036
:1023200000241D480094019402940394816941F0B3
:1023300020018161816901F020010491816941F0EE
:1023400004018161816901F004010491816941F016
:10235000080181618069114E00F0080040F20445D7
:102360000490002229463046FEF70EFC012000951D
:10237000CDE901040220039069463046FEF714FBC4
:102380004FF4704000900648CDE90104694630469C
:10239000FEF70AFB06B070BD00100240000C0140C1
:1023A00000001110104810B50E4901604FF4827101
:1023B000416000218160C1604FF400720161C0E999
:1023C00005120822C0E90721416281620A21C16227
:1023D000FFF704FC002803D0BDE81040FDF7C7BF9D
:1023E00010BD000000300140DC01002010B592B0AB
:1023F00000240F941C2168461094FDF705FF20214E
:1024000007A8FDF701FF24482249C0E900144FF650
:10241000FF71C0E90241046144618461FFF74EFE2F
:1024200008B1FDF7A4FF0F940FA91B481094FFF704
:10243000A5FC08B1FDF79BFF6020CDE900040294E4
:102440000394049405940022694613480694FFF708
:10245000CFFD08B1FDF78BFF042269460E48FFF758
:10246000C7FD08B1FDF783FF0794089409944FF462
:1024700000500A94CDE90B4007A907480E94FFF7D6
:1024800053FC08B1FDF773FF0348FFF75BFD12B083
:1024900010BD0000002C01403402002010B58AB0AD
:1024A000002407941C2168460894FDF7ADFE2148DE
:1024B0004FF08041C0E900144FF6FF71C0E90241BE
:1024C00004618461FFF7FAFD08B1FDF750FF07943E
:1024D00007A918480894FFF751FC08B1FDF747FF1A
:1024E0006020CDE90004029400226946114804945A
:1024F000FFF77EFD08B1FDF73AFF042269460D485B
:10250000FFF776FD08B1FDF732FF0822694609485A
:10251000FFF76EFD08B1FDF72AFF0C22694605485A
:10252000FFF766FD08B1FDF722FF0248FFF70AFD3D
:102530000AB010BD7C02002010B58AB000240794B8
:102540001C2168460894FDF75FFE22482049C0E937
:1025500000144FF6FF71C0E9024104618461FFF786
:10256000ADFD08B1FDF703FF079407A919480894CA
:10257000FFF704FC08B1FDF7FAFE6020CDE9000486
:1025800002940022694613480494FFF731FD08B114
:10259000FDF7EDFE042269460E48FFF729FD08B15C
:1025A000FDF7E5FE082269460A48FFF721FD08B15C
:1025B000FDF7DDFE0C2269460648FFF719FD08B15C
:1025C000FDF7D5FE0348FFF7BDFC0AB010BD0000C3
:1025D00000040040C402002010B586B00024164854
:1025E0000094019402940394049412490594C0E960
:1025F00000144FF6FF71C0E9024104618461FFF7E6
:10260000F1FB08B1FDF7B3FE4FF48050009069462E
:102610000948FFF729FC08B1FDF7A9FE049404A9B5
:1026200005480594FFF7AAFB002801D0FDF79FFE9F
:1026300006B010BD000800400C0300200C4810B587
:102640000A4901604FF4E1314160002181600C22B0
:10265000C160C0E904128161C161FFF789FD0028F2
:1026600003D0BDE81040FDF782BE10BD0038014028
:102670005403002010B500220F49104800F068FEF6
:1026800008B1FDF774FE0E490C4801F044F808B19A
:10269000FDF76DFE0B49094800F082FC08B1FDF71B
:1026A00066FE064801F08CF8002803D0BDE8104013
:1026B000FDF75DBE10BD0000000000209C0300205F
:1026C0004C01002050000020FEE7FEE72DE9F84F06
:1026D000044640F68F7B48F60F794FF480684FF040
:1026E000000ABDE1B0F8441011F00F0539D030F800
:1026F000256031047ED530F8251001EA0B0141F048
:10270000800120F8251005EB850004EBC00797F841
:102710005C0107F5A87700286DD0F87802286BD007
:102720003978226832F8210048F68F73184048F251
:10273000C003184322F821003978206830F821209E
:10274000B0F8503052047DD5022202EBC1015A1874
:1027500008EB4201415A8905890D009173D03A89ED
:10276000DDE0C9062BD4018801EA090141F40041EA
:102770000180206804F11005B0F85030217C02225D
:1027800002EBC1015A1808EB4201405AC0F309009C
:10279000E062616A0844606200212046FEF7B7FAF1
:1027A000607B00289DD0A86900289AD1607B2168B1
:1027B00040F08000A1F84C0084F80DA050E10188A1
:1027C00004F5A8750A0521D5B0F850202B7806210C
:1027D00001EBC3010A4408EB4201405A04F526719B
:1027E000C0F30903EB61EA88206801F019FE206854
:1027F000018802E0AEE06EE07EE001EA0B0141F00C
:10280000800101802046FEF7D5FE29E10904D5D5D7
:10281000018801EA0B0141F0800101802068B0F8D5
:1028200050202B78062101EBC3010A4408EB42013A
:10283000405A83059B0DEB6110D0696971B1EA883C
:10284000206801E05FE05DE001F0EAFDE9696869A8
:102850000844686100212046FEF762FA2168088872
:102860000205ABD4C0F301300328A7D0B1F8500063
:102870000844B0F80C14C1F30901A0F80C142A693B
:1028800000F20C403E2A09D95109D20600D1491E56
:1028900002884FF4004343EA812109E0B2B15108B4
:1028A000D20700D0491C02884FF6FF7303EA81214A
:1028B0000A430280216808884BF68F72104080F42A
:1028C000405048F2800210430880C9E0018841F47A
:1028D00000410180EEE72068B0F850203B780621E7
:1028E00001EBC3010A4408EB4201415A8905890DF5
:1028F000009118D0FA8812E0324639462046FEF799
:102900006BFA00900FE0062202EBC1015A1808EBA7
:102910004201415A8905890D009104D07A8979696B
:10292000009B01F07DFDF86900990844F861796920
:10293000009808447861B86918B1396900988142F3
:1029400004D939782046FEF7EBF903E039462068D0
:1029500001F0DAFA30062ED505EB850004EBC00154
:10296000206830F8252002EA090242F4004220F8EB
:102970002520C87C103101281ED0F0056CD42068B9
:10298000B0F850300D78022202EBC5021A4408EB71
:102990004202805A8A69C0F30900824255D9121A4C
:1029A0008A6154D04A6902444A61CA691044C861C4
:1029B000206801F0A9FA53E0C1F818A0087B52463C
:1029C00008B3700620D5487810B1012812D03AE03B
:1029D0002068B0F8502010440A7800EB0210B0F8DC
:1029E0000424C2F30902A0F80424B0F8042442F439
:1029F000004206E02068B0F8503018440B7800EB35
:102A00000310A0F804241EE04B78206813B1012BBA
:102A100011D018E0B0F8502010440A7800EB0210F2
:102A2000B0F80C24C2F30902A0F80C24B0F80C246E
:102A300042F4004205E0B0F8503018440B7800EB47
:102A40000310A0F80C24097802E0C1F818A0E9B23C
:102A50002046FEF75CF903E032462046FEF72FFAE7
:102A60002068B0F8441009043FF53CAE0020BDE8F2
:102A7000F88F70477047FEF793B830B593B02821B0
:102A80006846FDF7C1FB14210AA8FDF7BDFB002431
:102A900001200F9410941194010412948DE81300F6
:102AA00004904FF4E010CDE9081002250795684620
:102AB000FEF704FF08B172B6FEE70F20CDE90A0564
:102AC0004FF48060CDE90C4002210AA80E94FEF775
:102AD00019FE08B172B6FEE712200F904FF40040C5
:102AE000CDE911040FA8FEF797FD002801D072B6BA
:102AF000FEE713B030BD7047F0B50268194B1A4CB1
:102B00001A4D4FF08047984205D0B84203D0A042FA
:102B100001D0A84203D122F070064A68324398429D
:102B200005D0B84203D0A04201D0A84203D122F47C
:102B30004074CA6822434C6922F08002224302603A
:102B40008A68C2620A688262984201D10969016397
:102B5000012141610169C90703D0016921F0010127
:102B60000161F0BD002C014000040040000800405D
:102B700010B5846842EA032224F47F440A432243C6
:102B8000826010BD826822F070020A4342F00701A1
:102B90008160704730B5036A026A22F00102026266
:102BA0004268846924F073050C682C4323F0020505
:102BB0008B682B430A4DA8420BD123F00805CB6844
:102BC00022F440722B434D6923F0040315438A69B4
:102BD0002A434260846149684163036230BD00005A
:102BE000002C014030B5026A036A23F0100303622F
:102BF000436884690D6824F4E64444EA05248D683A
:102C000022F0200242EA05120B4DA8420ED1CD68F7
:102C100022F0800242EA05124D6923F4406343EA40
:102C200085038D6922F0400243EA85034360846195
:102C300049688163026230BD002C014030B5036AEF
:102C4000026A22F4807202624268C46923F400734B
:102C500024F073050C682C438D6843EA05230C4D62
:102C6000A8420ED1CD6823F4006343EA05234D69E1
:102C700022F4405242EA05128D6923F4806342EA4D
:102C800005124260C4614968C163036230BD00003F
:102C9000002C014030B5046A026A22F480520262BC
:102CA0004268C3690D6823F4E64343EA05238D684F
:102CB00024F4005444EA0534064DA84204D14D6979
:102CC00022F4804242EA85124260C361496801648D
:102CD000046230BD002C014010B5036A046A24F080
:102CE00001040462846924F0F00444EA021423F02D
:102CF0000A020A438461026210BD10B5036A046AC5
:102D000024F010040462846923F0A00324F47044C6
:102D100044EA023243EA01118261016210BD0000FF
:102D200070B5044600680169E26821F4405111431E
:102D300001612169A0680843616908432168CA6884
:102D400041F20C639A430243CA6020684169A26958
:102D500021F44071114341611E492068884202D12B
:102D6000FEF776FD01E0FEF763FD00EBC00101EB2D
:102D70000012606864218000B2FBF0F3B3FBF1F352
:102D80006FF018067343B2FBF0F5B2FBF0F605EBFB
:102D90008305322303EB0515B5FBF1F5B6FBF1F620
:102DA00005F0F00505EB0615B2FBF0F6B2FBF0F00E
:102DB000B0FBF1F06FF01802504306EB800003EB1C
:102DC0000010B0FBF1F0216800F00F00284488608B
:102DD00070BD0000003801402DE9F041D0F8C0324C
:102DE000D0F8B822CAB101EB810500EB85040026BA
:102DF000E7693FB103EBC5031B6AB7FBF3F503FBC0
:102E0000157323B1C2F814620020BDE8F0810023DD
:102E10001A46E66100F062FCF6E70220F5E770B5BD
:102E20000546D0F8B84200F05EFBC4F80C02D5F8B5
:102E3000B80248B1D5F8BC12D4F80402CA6804F547
:102E400003719047002070BD022070BD70B504462C
:102E50000026812100F09AFA002501212046E56232
:102E600000F094FA82212046C4F86C5100F08EFAEA
:102E70002564D4F8B80248B1D4F8BC0204F52E7425
:102E800040688047206800F0F8FD2560304670BD3E
:102E900010B5D0E9AE4159B194F80002FF2807D02F
:102EA0008B6894F8012221469847FF2084F800029D
:102EB000002010BD0A2101800048704774000020E6
:102EC0004321018000487047C40000204321018055
:102ED000004870478000002043210180004870476F
:102EE000080100202DE9F04104460026007C4FF443
:102EF0000077012590B3402302228121204600F073
:102F000046FB4023E56202220121204600F03FFB00
:102F10000823032282212046C4F86C5100F037FBBD
:102F20004FF40770256400F0A9FDC4F8B802F8B1A9
:102F30000546D4F8BC02006880470020C5F814029A
:102F4000C5F81802207CD5F8042298B1402301214D
:102F5000204600F028FB3046BDE8F081FFE73B4605
:102F600002228121204600F012FB3B46E562CAE7BF
:102F70000126F0E73B46EAE710B5D0F8B81269B190
:102F8000027C002AD1F8042205D04023012100F060
:102F90000AFB002010BD4FF40073F7E7022010BDBC
:102FA00002460220002902D00020C2F8BC1270475D
:102FB000D0F8B802C0F8041200207047D0F8B80268
:102FC000C0F81022C0F80812002070472DE9FC411B
:102FD0000546D0F8B87200208DF80000ADF8040066
:102FE000064608780C4610F0600121D020293BD11C
:102FF000E288AAB10006607807D5D5F8BC128B68C4
:1030000039469847E288394626E087F80002A079D9
:1030100087F80102E2883946284600F04FF828E098
:10302000D5F8BC12607800228B682146984720E0D2
:10303000607820B10A2809D00B2815D110E095F846
:103040009C02032810D1022201A905E095F89C02F8
:10305000032809D101226946284600F049F808E012
:1030600095F89C02032804D02146284600F01BF85E
:1030700002263046BDE8FC8110B5D0F8B422526873
:103080009047002010BD134610B50A46002100F0FD
:103090008AFA002010BD134610B50A46002100F040
:1030A0001DFB002010BD10B50446802100F0FBFA86
:1030B0002046BDE81040002100F0F5BA10B503230A
:1030C000C0F85C21C0F89432C0F8602113460A466B
:1030D000002100F068FA002010BD10B50521002382
:1030E000C0F894121A46194600F05DFA002010BD8F
:1030F00010B50223C261C0F89432026213460A4638
:10310000002100F0EBFA002010BD10B504210023CF
:10311000C0F894121A46194600F0E0FA002010BDDB
:1031200010B50A46024903A000F0E2F8004810BDBD
:103130006006002043444320436F6E6669670000C9
:1031400012200880004870472000002010B50A4671
:10315000024903A000F0CCF8004810BD6006002032
:1031600043444320496E74657266616365000000E4
:1031700004200880004870471C00002010B50A4653
:10318000024903A000F0B4F8004810BD600600201A
:1031900053544D6963726F656C656374726F6E69C9
:1031A0006373000010B50A46024903A000F0A0F8BE
:1031B000004810BD6006002053544D33322056693C
:1031C000727475616C20436F6D506F7274000000F3
:1031D00010B51A2008800A480168001D0468001D07
:1031E0000068081809D008220649FFF735F8054994
:1031F000042210312046FFF72FF80248801E10BD30
:10320000E8F7FF1F36000020F8B504460020ADF8AF
:10321000000048880D46010A082948D2DFE801F07D
:103220004704091747473C45D4F8B012207C0A6888
:1032300019E0207C02260028D4F8B40205D0C16A27
:1032400068468847014646703EE0816AF8E7C0B2AA
:1032500006282CD2DFE800F0030A1014181CD4F85A
:10326000B002426805E0694690471CE0D4F8B0021D
:103270008268E2B1207CF6E7D4F8B002C268F8E7D1
:10328000D4F8B0020269F4E7D4F8B0024269F0E77A
:10329000D4F8B0028269ECE7207C40B9D4F8B402DB
:1032A000416B6846884701460EE0207C20B12946E4
:1032B0002046FFF7F8FEF8BDD4F8B402016B68466B
:1032C0008847014607204870BDF8000048B1EA88E9
:1032D00052B1824200D90246ADF800202046FFF7E5
:1032E00007FFE8880028E6D12046FFF70EFFF8BD6B
:1032F00070B5002300281ED00446002502E06D1C96
:10330000EDB2641C2678002EF9D1022404EB4504AA
:1033100014801278CA545B1C0322CA5400245B1C1C
:1033200006E0CA545B1CDAB28C54521CD3B2401C67
:103330000278002AF5D170BD01004FF0000004D0E2
:10334000012901D0022901D00220704701207047D5
:1033500010B580B1D0F8B43213B10023C0F8B43244
:1033600009B1C0F8B012012180F89C12027000F07F
:10337000BFF8002010BD022010BD10B5D0F8C0026B
:10338000FDF7FDFCBDE81040FFF7D6BF10B5D0F843
:10339000C002FDF7CFFCBDE81040FFF7CDBF2DE91F
:1033A000F0411746044651B1D4F8B40242691AB14B
:1033B00094F89C02032851D00220BDE8F081D4F893
:1033C0009432002504F11400022B03D0042B3AD0D0
:1033D000C3B33CE0D0E903639E4207D9F11AC16050
:1033E0008AB239462046FFF756FE12E08068B0FBED
:1033F000F3F103FB110199B9984211D3D4F8981253
:1034000088420DD2002211462046FFF744FEC4F840
:10341000985200231A461946204600F0C4F816E0D8
:10342000D4F8B402C16829B194F89C02032801D1F0
:10343000204688478021204600F035F92046FFF7D6
:103440004CFE04E0FFE78021204600F02CF994F8C0
:10345000A002012804D184F8A05201E02046904740
:103460000020AAE770B51546044649B1D4F8B40265
:1034700082691AB194F89C02032830D0022070BDF2
:10348000D4F8941204F5AA70032902D005291ED09D
:1034900027E0D0E903218A420BD9531AC3600846BA
:1034A000834200D303469AB229462046FFF7EBFD3C
:1034B00017E0D4F8B402016929B194F89C020328FA
:1034C00001D1204688472046FFF71FFE09E0002073
:1034D0000146C4F89402204600F0E5F801E02046D9
:1034E0009047002070BDD0F8C002FDF784BE0000F8
:1034F00010B504461C481D49C0F8D442C4F8C002A7
:103500000160082101710221817100218172C17263
:103510000173FDF7A5FF08B1FCF729FF0022D4F8DD
:10352000C0021823114604F53074FDF7D1FB58236F
:10353000002280212068FDF7CBFBC02300228121DF
:103540002068FDF7C5FB4FF4887300220121206835
:10355000FDF7BEFB4FF48073002282212068FDF747
:10356000B7FB002010BD000080120020005C00406E
:103570000A0601F07F01D0F8C00201EB810100EBE7
:10358000C10001D5807C704790F85201704710B59A
:103590001C461346D0F8C0022246FDF735FEBDE8B2
:1035A0001040FFF7C9BE10B5D0F8C002FDF758FEB5
:1035B000BDE81040FFF7C0BE70B5002204464023AE
:1035C0001146FFF7E4FF40260125C4F86461334645
:1035D000002280212046C4F85851FFF7D8FF6662C8
:1035E000A56184F89C520020C4F894026060C4F87D
:1035F000A402D4F8B80228B1D4F8B4020021426879
:1036000020469047002070BD90F89C12042903D1F9
:1036100090F89D1280F89C120020704710B590F829
:103620009C12032904D1D0F8B412C96901B18847AA
:10363000002010BD01740020704710B5D0F8C00202
:10364000FDF7A5FFBDE81040FFF776BE70B5044654
:1036500000F52A70054600F04AF80120C4F89402EB
:10366000B4F8AE02C4F8980294F8A80210F01F0152
:103670000AD001290DD0022910D000F08001204687
:1036800000F011F8002070BD2946204600F09DF89A
:10369000F8E72946204600F0C9F9F3E72946204615
:1036A00000F01CF9EEE710B5D0F8C002FDF7EFFD11
:1036B000BDE81040FFF740BE10B5D0F8C002FDF7DE
:1036C00080FFBDE81040FFF737BE90F89C1280F8ED
:1036D0009D12042180F89C120020704710B5D0F88C
:1036E000C002FDF70CFEBDE81040FFF725BE0A78CA
:1036F00002704A7842708A78CB7802EB03224280CB
:103700000A794B7902EB032282808A79C97902EB2C
:103710000121C18070470246002011B1C2F8B412E5
:1037200070470220704710B5D0F8B42202241AB1B5
:103730001268904700B90024204610BD70B50E46AF
:103740001E4D897804462970012931D894F89C02CD
:1037500002280BD003280FD031462046FFF7A3FCE8
:1037600029782046BDE87040FFF786BCD9B1032018
:10377000616084F89C0209E071B16068884212D0EF
:10378000C1B22046FFF778FC297861602046FFF738
:10379000CAFF02280CD006E0022084F89C022046D2
:1037A0006160FFF769FC2046BDE87040FFF7ADBCE3
:1037B00031462046BDE87040FFF775BC7000002020
:1037C00010B5FFF779FF002010BD2DE9F0410A7810
:1037D000002612F0600208D0202A01D0402A70D1C1
:1037E000D0F8B422926890476DE04B780022012512
:1037F0000A2B66D2DFE803F0405D65576508056572
:103800002C29FFF701FD5EE004468888D8B9C888F6
:10381000C8B94888802816D200F07F0794F89C0227
:10382000032810D084F89E7239462046FFF705FF22
:103830002046FFF76AFC1FB1022084F89C0242E098
:1038400084F89C523FE020463BE0FFF777FF3AE0E8
:10385000CB88012B35D190F89C32012B04D0022B60
:1038600002D0032B2DD104E08260012200F1080177
:1038700016E00122011D13E090F89C22012A03D0DA
:10388000022A01D0032A1CD1CA88022A19D1C56094
:10389000D0F8A41209B10321C160022200F10C0189
:1038A000FFF726FC0FE0498801290CD1C0F8A4528B
:1038B00011E090F89C32012B08D0022B06D0032B8C
:1038C00004D0FFF7F0FB3046BDE8F08149880129BC
:1038D000F9D1C0F8A422FFF718FCF4E72DE9F04174
:1038E0000A46044610780027097910F060030AD0D0
:1038F000202B01D0402B50D1D4F8B402114683685C
:10390000204698478FE0C0F34110012806D0507838
:10391000D0B301282AD003283FD107E0D4F8B4025D
:10392000114683682046BDE8F041184794F89C0290
:10393000022802D0032872D10AE071B380296ED028
:103940002046FFF7B0FE80212046FFF7ACFE6AE07C
:10395000508838B931B1802904D0D08810B92046B8
:10396000FFF7A1FE2046FFF7D0FB5CE094F89C0235
:103970000228E2D0032852D1508898BB4806F1D0E3
:103980002046FFF7FAFCEDE7FFE794F89C020026DB
:10399000022803D0032842D112E040E009B1802977
:1039A0003DD1080601F07F0000EB800004EB8001B0
:1039B00001D5143101E001F5AA7102220E602AE05E
:1039C000080601F00F0000EB800004EB80000AD530
:1039D000806920B301F07F0000EB800004EB8005DC
:1039E00014350BE01FE0D0F85801C0B101F07F00A2
:1039F00000EB800004EB800505F5AA7541B1802934
:103A000006D02046FFF7B4FD10B10120286000E089
:103A10002E60022229462046FFF76AFB03E011468A
:103A20002046FFF740FB3846BDE8F08170B50546FB
:103A300008780C4610F0600003D0202801D0402800
:103A400016D195F89C02012803D0022801D0032842
:103A50000ED1207901280BD8D5F8B4028268284607
:103A60009047E188014306D12846FFF74EFB02E06C
:103A70002846FFF718FB002070BD704700487047CC
:103A8000601000202DE9F0470C78002630F8243033
:103A900048F68F121340CA78002A78D0012A7CD0C9
:103AA000022A02D0032A75D0012648F2800213436D
:103AB00020F824300D7830F8253048F68F742340F4
:103AC0002B43134320F825300D7B48F2C00948F6FC
:103AD000BF734CF2800A4BF68F77EDB3CD7891F837
:103AE00000C0022D30F82C507DD048F68F6805EAD2
:103AF0000805154320F82C50B0F8505091F800C03C
:103B0000054405EB0C15B1F808C02CF0010CA5F824
:103B100000C4B0F8505091F800C0054405EB0C15F6
:103B2000B1F80AC02CF0010CA5F808C44D78002D9E
:103B30007ED00D7830F825C05FEA4C4C07D530F8C0
:103B400025C00CEA040C4CEA0A0C20F825C091F8B8
:103B500000C030F82C5000E022E06D0606D530F8A9
:103B60002C50254045EA090520F82C50CC780D78DA
:103B7000012C30F8254004EA03047CD084F02003B3
:103B8000134320F82530C1E001E006E002E043F4F1
:103B900000738AE743F4C06387E743F4806384E7F4
:103BA0004D784DB3B0F850500F78054405EB07152C
:103BB000CF8827F00107A5F800740F7830F8275058
:103BC0006D0606D530F82750254045EA090520F84E
:103BD0002750CC78012C07D00C7830F824101940ED
:103BE00081F0200104E064E00C7830F824101940E2
:103BF000114320F8241090E0B0F850300D780344C1
:103C000003EB0513CD8825F00105A3F80854B0F89F
:103C100050300D78034403EB0513B3F80C54C5F38F
:103C20000905A3F80C540D6903F20C433E2D00E086
:103C300045E00BD94FEA551CED0601D1ACF1010C62
:103C40001D884FF4004848EA8C2C0BE035B34FEA4E
:103C5000550CED0701D00CF1010C1D884FF6FF78D3
:103C600008EA8C2C45EA0C051D800D7830F82530CB
:103C70005B0408D500E046E030F82530234043EAF5
:103C80000A0320F82530097861B130F821303B4033
:103C900083F40053134320F821303EE01D8845F49F
:103CA0000045E1E70188394081F44051114301802A
:103CB00033E0254048F2801845EA08051AE791F8F4
:103CC00000C030F82C506D0406D530F82C5025403B
:103CD00045EA0A0520F82C5091F800C030F82C5025
:103CE0006D0606D530F82C50254045EA090520F828
:103CF0002C500D7830F825403C4084F44054144357
:103D000020F8254070E7144320F825400B7830F860
:103D100023103940114320F823103046BDE8F087C6
:103D2000002070472DE9F04391F80C804F780A7815
:103D300048F6BF7C4BF68F7948F2800348F2C00505
:103D40004CF2800648F68F74B8F1000F28D0002F8F
:103D500030F822704FEA474748D0002F05DA30F894
:103D600022702740374320F822700A7830F82270FA
:103D70007F0605D530F8227027402F4320F82270A7
:103D80000D7830F825202240324320F825200C7889
:103D900030F8242002EA0C021A4320F824201AE00A
:103DA0007FB130F82260760605D530F822602640D3
:103DB0002E4320F822600A7830F8221001EA0C0124
:103DC0000EE030F822506D0405D530F82250254021
:103DD000354320F822500A7830F8221001EA090110
:103DE000194320F822100020BDE8F083002F05DAE7
:103DF00030F822702740374320F822700A7830F8D4
:103E00002260760605D530F8226026402E4320F841
:103E100022600E7830F8262022402A4320F82620FF
:103E20000C7830F8242002EA09021A4320F82420F2
:103E3000C1E70020704700207047012120F8401F93
:103E400000210180818001820846704730F8401FC0
:103E500021F43F410180002070470020704730B5B9
:103E60000A7BB2BB4A7848F68F7548F28004C2B12B
:103E70000B7830F82320520607D530F823202A404B
:103E800048F2C0052A4320F82320CA78012A20D00E
:103E90000A7830F8221048F6BF73194081F02001EB
:103EA00014E00A7830F822305B0407D530F822306D
:103EB0002B404CF280052B4320F822300A7830F852
:103EC00022104BF68F73194081F44051214320F8A2
:103ED0002210002030BD10B54A780978002A48F237
:103EE000800330F8212005D048F6BF74224082F0CC
:103EF000100204E04BF68F74224082F480521A4381
:103F000020F82120002010BD2DE9F0470D464B7808
:103F1000097B04464FF0000948F68F7248F2800A88
:103F20004FF400474FF6FF78012B09D000296FD0DE
:103F3000E87802286DD001286CD00120BDE8F08718
:103F4000AE692869864200D9064691B1E97802290E
:103F50001ED0286A801B2862287834F82010490671
:103F6000B4F85010214401EB001073D5A0F80C6494
:103F700016E1B3B2EA882046696900F06FFAB4F836
:103F800050002978204400EB0110A0F804640DE1F2
:103F9000296A814277D9297834F82100104048F203
:103FA0008012104324F82100286A801B2862287898
:103FB00034F820104906697871D511B101292AD049
:103FC00030E0B4F85010214401EB0010B0F80C14AC
:103FD000C1F30901A0F80C1400F20C403E2E07D9E1
:103FE0007109F20600D1491E028847EA812107E0E3
:103FF0004EB17108F20700D0491C028808EA8121FD
:104000000A4302800EE0018841F40041018009E08A
:10401000F1E020E195E1B4F85020111901EB001016
:10402000A0F80C646A89B3B22046696900F016FAF8
:104030006869304468612969286A884202D9801B0E
:10404000286202E00646C5F82090687818B1012879
:104050002BD032E02FE0B4F850002978204400EB58
:104060000110B0F80414C1F30901A0F8041400F21F
:1040700004403E2E08D97109F20600D1491E02887B
:1040800047EA812108E0A1E056B17108F20700D0AB
:10409000491C028808EA81210A4302800DE00EE0F3
:1040A000018841F40041018007E0B4F8500029780C
:1040B000204400EB0110A0F804642A8971E011B1DA
:1040C000012927D02DE0B4F85010214401EB001055
:1040D000B0F80414C1F30901A0F8041400F204407C
:1040E0003E2E07D97109F20600D1491E028847EA1F
:1040F000812107E04EB17108F20700D0491C028807
:1041000008EA81210A4302800BE0018841F4004162
:10411000018006E0B4F85010214401EB0010A0F833
:1041200004642A89B3B22046696900F097F9686986
:10413000304468612969286A884202D9801B286254
:1041400002E00646C5F82090687810B1012836D004
:1041500026E0B4F850002978204400EB0110B0F8B4
:104160000C14C1F30901A0F80C1400F20C403E2E0F
:1041700007D97109F20600D1491E028847EA812158
:1041800007E04EB17108F20700D0491C028808EA26
:1041900081210A43028003E0018841F4004101804B
:1041A0006A89B3B22046696900F058F9297834F871
:1041B000210048F6BF72104080F030000FE1B4F8E3
:1041C00050100819297800EB0110CFE62A7834F84E
:1041D000220048F68F63184040EA0A0024F82200C3
:1041E000B4F850002A78204400EB02108BB2A0F8FB
:1041F00004342A89D6E7A9692869814202D9091AB3
:10420000A96102E00846C5F81890B4F850102A7861
:10421000214401EB0211B1F80C24C2F30902A1F808
:104220000C2401F20C413E287DD94209C00600D180
:10423000521E088847EA82220AE0088840F40040BB
:1042400007E04208C00700D0521C088808EA822212
:1042500010430880BBE033BBB4F8500029782044F9
:1042600000EB0110B0F80414C1F30901A0F8041424
:10427000296900F204403E2907D94B09C90600D13B
:104280005B1E018847EA832307E041B14B08C90759
:1042900000D05B1C018808EA8323194302E00188EF
:1042A00041F400410180687810B1012828D030E045
:1042B000B4F850002978204400EB0110B0F80C1439
:1042C000C1F30901A0F80C14296900F20C403E2941
:1042D00007D94B09C90600D15B1E018847EA832331
:1042E00007E041B14B08C90700D05B1C018808EA10
:1042F0008323194302E0018841F40041018008E072
:10430000B4F850100819297800EB0110298AA0F898
:104310000C14E869C0B3297834F82100430401D5AE
:10432000430605D400E046E044F2400318424ED173
:1043300034F82100104048F2C002104324F8210054
:1043400045E0A9692869814202D9091AA96102E0F8
:104350000846C5F8189013BBB4F850102A782144C9
:1043600001EB0211B1F80424C2F30902A1F80424FC
:1043700001F204413E2808D94209C30600D1521E69
:104380000B8847EA822208E021E078B14208C3079F
:1043900000D0521C0B8808EA822213430B806978F4
:1043A00000293FF42EAF012909D010E00A8842F419
:1043B00000420A80F3E700287FF443AF3DE7B4F8FA
:1043C000502011192A7801EB0211A1F80C04297868
:1043D00034F821004BF68F72104080F4405040EAD0
:1043E0000A0024F821000020A8E50021A0F84410CC
:1043F0004FF43F41A0F840100020704710B504482A
:10440000FCF7F1F8BDE810400248FCF78FBF000050
:10441000B401002080120020B0F844007047000072
:1044200010B500EB42005C0800F5806009D000BFC9
:1044300030F8042B01F8012B120A01F8012B641E3D
:10444000F6D1DA0701D00088087010BD002070474F
:1044500011B98021A0F84C100020704710B55B1CEA
:1044600000EB42005B0800F5806009D011F8012BD9
:1044700011F8014B42EA042220F8042B5B1EF5D10F
:1044800010BDFEE70907090E002804DB00F1E0205B
:1044900080F80014704700F00F0000F1E02080F871
:1044A000141D7047FCF784FBFEF7E7FAFDF736FFB3
:1044B000FDF778FFFDF79AFFFDF7F0FFFEF73CF8F8
:1044C000FEF78AF8FEF7BAF8FEF7D4F8FDF7E0FE3B
:1044D000FDF706FFFEE701020203040506070809CF
:1044E0000A0B0C0D0E0F1010000000000000000061
:1044F000010203040607080900000000010203048A
:104500002045000800000020840100002801000868
:10451000E045000884010020341A000084010008EE
:104520001341311B0871041A7D041AA5041AD10421
:104530001A21041A4D04170403090412011402027B
:1045400002164083044057260201020301031A1A8F
:10455000031331031B082D041A29041A5504192FBB
:1045600011821053127A130A0632022A401C1C09C7
:104570000243571125C03209041B01020B13052405
:104580001610010524011009010424020205240665
:10459000170107058203081C1009048D320A1D0744
:1045A000050102432C070581070938442A40072AE0
:1045B0008107112B0907440A3B044413E52E1B080D
:1045C0004D0413CD2F42081A910C13D92D1B081F2F
:1045D00008C11ACD102AC11C19041AB50400000024
:04000005080000ED02
:00000001FF
